:020000040800F2
:1000000058070020010100083123000839150008B5
:10001000FD1D0008A90A00080535000800000000C1
:10002000000000000000000000000000E12C0008BB
:10003000CB0A000800000000D5250008CD2D0008DF
:100040001B0100081B0100081B0100081B01000820
:100050001B0100081B0100081B0100081B01000810
:100060001B0100081B0100081B0100081B01000800
:100070001B0100081B0100081B0100081B010008F0
:100080001B0100081B0100081B0100081B010008E0
:100090001B0100081B0100081B0100081B010008D0
:1000A0001B0100081B0100081B0100081B010008C0
:1000B0001B010008692F00081B0100081B01000834
:1000C0001B0100081B0100081B0100081B010008A0
:1000D0001B0100081B0100081B010008C9330008B0
:1000E0001B0100081B0100081B010008DFF80CD0F1
:1000F00000F0E4FB00480047C93B00085807002017
:100100000648804706480047FEE7FEE7FEE7FEE7B1
:10011000FEE7FEE7FEE7FEE7FEE7FEE7DD2D00086F
:10012000ED00000840EA01039B0703D009E008C97D
:10013000121F08C0042AFAD203E011F8013B00F8AC
:10014000013B521EF9D27047D2B201E000F8012BF8
:10015000491EFBD270470022F6E710B513460A4647
:1001600004461946FFF7F0FF204610BDF0B480EAC0
:100170000102D40F4200B2EB410F02D20246084600
:1001800011464A0042D0C30DDDB2C1F3C752AD1AC9
:10019000202D35DAC1F3160141F4000204B15242B8
:1001A000C5F1200602FA06F12A411044B3EBD05FF4
:1001B00023D0C4B1012DA0EBC35009DCF0BC4FF03B
:1001C000004202EAC352DBB200F5000000F058BA68
:1001D000400000F1807000EBC350A0F1807040EA55
:1001E000D170490009E0490841EAC071A0EBC35051
:1001F00000F50000400800EBC350F0BC00F037BA37
:100200006142012202EB4101001BF6E7F0BC70479E
:1002100081F00041AAE780F00040A7E780EA0102F0
:1002200010B502F00043400022D04A001FD0010E5A
:1002300001EB1261C0F35600C2F3560240F4000015
:1002400042F40002A0FB022000047F39140400D015
:10025000401C50EA124001D44000491EC2B20C06B4
:1002600004EBD010401C4008802A02D003E000209C
:1002700010BD20F00100002900DA0020184310BD55
:1002800030B480EA010202F0004530F0004221F073
:10029000004013D090B1C30DD40DC2F31601C0F3CA
:1002A0001600E41A41F4000140F400027D3491424A
:1002B00001D3641C00E04900002C02DA30BC0020AD
:1002C00070474FF400000023914201D3891A034381
:1002D00040084FEA4101F7D151B1914202D14FF0AC
:1002E000004105E002D24FF0010101E06FF0010191
:1002F00003EBC450284430BC00F0B9B92DE9FE4FDF
:10030000804681EA0300C00F0C46009021F00041B6
:1003100023F00045B8EB0200A94105D24046214632
:1003200090461C460B46024623F00040104347D03F
:10033000270DC7F30A00C3F30A510290401A019037
:1003400040286BDAC3F3130040F4801B00989246F8
:1003500020B10023D2EB030A63EB0B0B0198594643
:10036000C0F14002504600F061F906460D46504685
:100370005946019A00F069F910EB08006141002428
:1003800087EA115284EAE7731A4340D0009A62B3B5
:10039000019A012A4FEA075215DC001B61EB0201AA
:1003A0004FF0004202EA0752CDE90042001C41F53D
:1003B000801132462B4600F0ACF903B0BDE8F08F57
:1003C00040462146F9E7001B61EB0201001C41F5A4
:1003D000801300185B412018A2F5001747EB0301BA
:1003E00040EAD570B6196D4111E06D084FEA360646
:1003F00045EAC0754FEA0752001B61EB0201001C81
:1004000041F5801149084FEA300000195141324648
:100410002B4603B0BDE8F04F00F06CB90098012204
:1004200040000023D0EB020263EBE073009821460A
:100430004FEAE074B8EB000061EB0401E9E783F0F8
:1004400000435BE781F0004158E72DE9FE4F81EA68
:10045000030404F0004421F0004100944FF0000B2D
:1004600023F0004350EA01045ED052EA03045BD05B
:10047000C3F30A54C1F30A552C44A4F2F334019493
:10048000A0FB0254C1F3130141F48011C3F3130321
:1004900043F4801301FB024400FB034E840A970AD5
:1004A00044EA815447EA8357A4FB076802958D0A02
:1004B00005FB07854FEA932C04FB0C542705029D8E
:1004C0004FEA065847EA1637B5EB08056EEB070CFE
:1004D000870E920E47EA811742EA8312A7FB0201B8
:1004E000B6EB0B0164EB00042B0D43EA0C335E18F2
:1004F00044EB1C50DA465146E7FB0201C5F31304F6
:100500004FEA0B3343EA14534FEA0432019C43EAA7
:100510000603A4F10C040294009CCDE900B400F0A1
:10052000F8F803B0BDE8F08F00200146F9E7C10FED
:1005300080EAE0700844CA079623002100F0A0B8C2
:1005400096230022114600F09BB800F0004220F0F4
:100550000040C10DC0F3160040F400007F2901DA0D
:1005600000207047962903DCC1F19601C84001E0E4
:1005700096398840002AF4D04042704720F000406D
:10058000C10DC0F3160040F400007F2901DA0020FD
:100590007047962903DCC1F19601C840704796392F
:1005A0008840704700F0004230F000400AD0C10D92
:1005B00001F56071C0F3160042EA0151C20840071C
:1005C0001143704700200146704701F0004330B4EA
:1005D00021F0004150EA010206D00A0DA2F5607236
:1005E000C1F31301002A02DC30BC00207047440F25
:1005F00044EAC104C100E01830BC00EBC25000F076
:1006000036B80000002801DBC0F10040002901DB02
:10061000C1F1004181427047002801DBC0F1004078
:10062000002901DBC1F1004188427047202A04DB28
:10063000203A00FA02F1002070479140C2F12003F5
:1006400020FA03F3194390407047202A06DBCB17AA
:10065000203A41FA02F043EAE07306E041FA02F37D
:10066000D040C2F12002914008431946704700294A
:10067000A8BF7047401C490008BF20F00100704728
:1006800010B4B0FA80FC00FA0CF050EA010404BF88
:1006900010BC704749B1CCF1200421FA04F411FADE
:1006A0000CF118BF012121430843A3EB0C01CB1D22
:1006B0004FEA00614FEA102042BF002010BC704793
:1006C00000EBC35010440029A4BF10BC7047401C6D
:1006D000490008BF20F0010010BC7047420005D05F
:1006E000C0F3C7525242914201DC0020704700EB38
:1006F000C150704710B5141E73F1000408DA401C95
:1007000041F1000192185B411A4301D120F0010030
:1007100010BD2DE9F04D92469B4611B1B1FA81F220
:1007200002E0B0FA80F220329046FFF77FFF0446E5
:100730000F4640EA0A0041EA0B0153465A46084375
:1007400013D0114653EA010019D0C8F140025046B7
:1007500000F0C6F805460E46504659464246FFF799
:1007600065FF084305D0012004E020463946BDE876
:10077000F08D0020054346EAE0762C4337430A9883
:100780006305E40AA0EB08000022FD0A44EA47548E
:100790000A3002D500200146E9E701051019694138
:1007A000DDE9084500196941BDE8F04DA2E72DE9F2
:1007B000F04D81EA030404F0004B21F0004514469B
:1007C0004FF0000A23F0004150EA050220D054EA1D
:1007D00001021DD0C5F30A570246C5F31303C1F346
:1007E0001300C1F30A5640F4801543F48013A7EBBD
:1007F0000608101BD64608F2FD3873EB050002D33D
:1008000008F1010801E092185B41B8F1000F03DA2A
:1008100000200146BDE8F08D00204FF4801106460F
:1008200084460EE0171B73EB050705D3121B63EB21
:10083000050306434CEA010C49084FEA30009218C0
:100840005B4150EA0107EDD152EA030012D082EA7F
:10085000040083EA0501084305D0101BAB4106D212
:100860000122002306E000224FF0004302E06FF077
:10087000010253101AEB06004CEB085110EB0A0072
:1008800041EB0B01BDE8F04DFFF734BF70B521F02F
:10089000004303430CD0C1F30A550024D5EB0405F3
:1008A00064EB0403D617AD1AB34102DB0020014606
:1008B00070BD201841EB025170BD0000064C074D81
:1008C00006E0E06840F0010394E807009847103420
:1008D000AC42F6D3FFF70EFC403F0008603F000833
:1008E000202A04DB203A21FA02F00021704721FA85
:1008F00002F3D040C2F120029140084319467047EC
:100900002DE9F04D00231A461B1A8A4103DB002013
:100910000146BDE8F08DC1F30A52C1F3130141F461
:1009200080154FF0000BD10702D100186D41521E07
:100930000027044640F2FF11384601EB620A3E46AA
:100940008046024600204FF48011FFF7C9FFC2190C
:100950007141BB1846EB0100B4EB030C75EB000CC6
:1009600004D3E41A65EB000517460E46241908F176
:1009700001006D4180463428E3DDF91946EB06009D
:10098000091BA84103D24FF0FF32134601E00022B9
:1009900013461BEB070046EB0A51BDE8F04DFFF78D
:1009A000A9BE10B501F064F903F098F901F00AFA54
:1009B00001F07EFC01F0C0FD02F040FA41F2883007
:1009C00003F0C4F802F09EFA10BD000010B5044612
:1009D00094F9020011281FD008DC012839D0022820
:1009E00038D0032853D0102852D108E0122820D044
:1009F00013282BD014282AD0152849D128E02648BE
:100A0000007820F00100401C234908701222211DAB
:100A10002248FFF787FB3CE01222211D2048FFF708
:100A200081FB1D48007820F00200801C1A490870E4
:100A30002FE01222211D1B48FFF774FB1648007897
:100A400020F00400001D1449087022E021E020E09D
:100A50001FE01EE02079212813D004DC012807D0F4
:100A6000022811D10CE0A0280CD0A1280CD10AE05A
:100A70000948007820F0400040300749087004E041
:100A800003E002E001E000E000BF00BF01E000E0A1
:100A900000BF00BF10BD000090000020DC0200205D
:100AA000EE0200200003002000BFFEE770B50646FE
:100AB0000C4615462946204603F0D6F8A06A306059
:100AC0002946304603F0D0F870BD704770B5044633
:100AD00054480078012806D00B280DD01F2819D0C3
:100AE000FF287DD187E05048007800F0010010B168
:100AF0000B204C4908708AE008214C4803F09EF80E
:100B000000204B49486208604A4988601F204549D7
:100B100008707CE0474948684749FFF773FD11D3E7
:100B2000444948684549FFF777FD0BD341490868B8
:100B30004149FFF767FD05D33E4908683F49FFF784
:100B40006BFD05D23848007820F001003649087066
:100B50003B49B1F90600FFF7EAFC05463948016850
:100B60002846FFF75BFB384948623549B1F9080070
:100B7000FFF7DDFC0546334801682846FFF74EFBCA
:100B8000324948622E49B1F90A00FFF7D0FC054608
:100B90002C4801682846FFF741FB2D49486225484B
:100BA00040682C494862234800682B494862214824
:100BB00080681F4948622146274803F055F82648B7
:100BC000806A2149086021461F4803F04DF82146FC
:100BD000204803F049F81F48806A1C49086000E07B
:100BE00011E02146194803F03FF822461049184801
:100BF000FFF75CFF0BE008210C4803F01FF8012011
:100C00000849087003E0FF200649087000BF00BFD4
:100C10000548007800F0010010B9FF200149087074
:100C200070BD0000D900002022000020A00000209C
:100C30002802002008010020000048C200004842AD
:100C4000FC000020E43E00082401002058010020A0
:100C50008C010020C0010020F40100202DE9F041AA
:100C6000024600250026002000230024002791F8DA
:100C700003C00CF00F0591F803C00CF0100CBCF190
:100C8000000F03D091F802C04CEA050591F800C0AE
:100C9000BCF1000F31D0146800202BE04FF0010CA4
:100CA0000CFA00F3B1F800C00CEA03069E4220D112
:100CB00083004FF00F0C0CFA03F7BC4305FA03FC5A
:100CC0004CEA040491F803C0BCF1280F06D14FF0A0
:100CD000010C0CFA00FCC2F814C00AE091F803C041
:100CE000BCF1480F05D14FF0010C0CFA00FCC2F822
:100CF00010C0401C0828D1D31460B1F800C0BCF16A
:100D0000FF0F34DD546800202EE000F1080C4FF096
:100D1000010808FA0CF3B1F800C00CEA03069E4281
:100D200021D183004FF00F0C0CFA03F7BC4305FAF6
:100D300003FC4CEA040491F803C0BCF1280F05D170
:100D400000F1080C08FA0CF8C2F8148091F803C0FE
:100D5000BCF1480F07D100F1080C4FF0010808FA68
:100D60000CF8C2F81080401C0828CED35460BDE8AF
:100D7000F08101617047000007B59EB04FF07C51D3
:100D80002098FFF74BFA0C90FE4880680890FD48C9
:100D9000006807900899FFF741FA0A90F948C0687F
:100DA0000890F848406807900899FFF737FA0990CB
:100DB0000A99FFF72DFA4FF080410B90FFF72EFABA
:100DC0001B90F048C0680890EE488068079008992A
:100DD000FFF724FA0A90EB4840680890E948006859
:100DE00007900899FFF71AFA09900A99FFF7BEF9D8
:100DF0004FF080410B90FFF711FA1C90E14880689A
:100E00000790E048806806900799FFF707FA099075
:100E1000DC4840680790DB48406806900799FFF778
:100E2000FDF908900999FFF7A1F94FF080410A9068
:100E3000FFF7F4F94FF07E510B90FFF7ECF91D909E
:100E4000D148B0F904000690FFF771FB0890CE4836
:100E5000B0F904000690FFF76AFB07900899FFF7C6
:100E6000DDF90A90C848B0F902000490FFF75FFB73
:100E70000690C548B0F902000490FFF758FB0590B2
:100E80000699FFF7CBF90890BF48B0F9000004902D
:100E9000FFF74DFB0690BC48B0F900000490FFF747
:100EA00046FB05900699FFF7B9F907900899FFF7F7
:100EB0005DF909900A99FFF759F90B9001F0FAFBD7
:100EC0000D901E98B0F900000A90FFF730FB0B90D0
:100ED0000D99FFF7A3F918901E98B0F902000A9037
:100EE000FFF725FB0B900D99FFF798F919901E98C5
:100EF000B0F904000A90FFF71AFB0B900D99FFF769
:100F00008DF91A901C9809901A9808900999FFF782
:100F100085F90B901D980990199808900999FFF789
:100F20007DF90A900B99FFF773F912901D980990BB
:100F3000189808900999FFF771F90B901B98099080
:100F40001A9808900999FFF769F90A900B99FFF729
:100F50005FF913901B980990199808900999FFF769
:100F60005DF90B901C980990189808900999FFF763
:100F700055F90A900B99FFF74BF9149012980A90C3
:100F8000824801680A98FFF749F90B908048006889
:100F900001460A900B98FFF7E9F87D49086013981D
:100FA0000A907A4801680A98FFF738F90B90784858
:100FB000406801460A900B98FFF7D8F874494860DA
:100FC00014980A90714801680A98FFF727F90B9066
:100FD0006F48806801460A900B98FFF7C7F86C4984
:100FE00088601298014608906A480068FFF716F971
:100FF0000A901E98B0F906000790FFF798FA08903B
:10100000654801680898FFF709F909900A99FFF700
:10101000ADF80B905E48006801460A900B98FFF708
:10102000A5F815901398014608905A480068FFF7F4
:10103000F5F80A901E98B0F908000790FFF777FAC4
:101040000890554801680898FFF7E8F809900A9950
:10105000FFF78CF80B904E48406801460A900B98B9
:10106000FFF784F8169014980146089049480068E4
:10107000FFF7D4F80A901E98B0F90A000790FFF71E
:1010800056FA0890444801680898FFF7C7F8099095
:101090000A99FFF76BF80B903D48806801460A906B
:1010A0000B98FFF763F81790179808903548C068B9
:1010B00007900899FFF7B2F80A9016980690314801
:1010C000806805900699FFF7A9F808902D484068B8
:1010D00080F0004006901598014605900698FFF7AD
:1010E0009DF807900899FFF793F809900A99FFF780
:1010F0008FF80B900C99FFF791F8119017980890C2
:101100002048806807900899FFF788F80A90169899
:1011100006901C48C06805900699FFF77FF8089074
:10112000159806901748006805900699FFF776F81D
:1011300007900899FFF76CF809900A99FFF716F8DD
:101140000B900C99FFF76AF81090179808900D48CB
:10115000406807900899FFF761F80A901698069082
:101160000848006805900699FFF758F80890159808
:1011700006900448C06805900699FFF74FF807905D
:1011800008990BE0E8000020FC000020E4000020AB
:101190004C030020E0000020E83E0008FEF7E6FFD8
:1011A00009900A99FFF734F80B900C99FFF736F87D
:1011B0000F9017980890C648006807900899FFF7A5
:1011C0002DF80A9016980690C14840680590069937
:1011D000FFF724F80890BE48806880F00040069031
:1011E0001598014605900698FFF718F8079008999A
:1011F000FEF7BCFF09900A99FEF7B8FF0B900C9917
:10120000FFF70CF80E90B24800680B901199FEF7AA
:10121000ADFFAF490860084640680B901099FEF793
:10122000A5FFAB494860084680680B900F99FEF710
:101230009DFFA74988600846C0680B900E99FEF78D
:1012400095FFA349C8600846C06808900846C06872
:1012500007900899FEF7E2FF0A909D488068069083
:101260009B48806805900699FEF7D8FF089098483B
:10127000406804909648406803900499FEF7CEFFBA
:101280000690934800680490914800680390049980
:10129000FEF7C4FF05900699FEF768FF07900899CE
:1012A000FEF764FF09900A99FEF760FF0B9001F0CA
:1012B00001FA0D90864800680B900D99FEF7AEFF7D
:1012C00083490860084640680B900D99FEF7A6FF19
:1012D0007F494860084680680B900D99FEF79EFF95
:1012E0007B4988600846C0680B900D99FEF796FF11
:1012F0007749C86008464068014604904FF0804036
:10130000FEF78CFF05907248C0680146049005986E
:10131000FEF784FF07906E480068014604904FF086
:101320008040FEF77BFF0590694880680146049085
:101330000598FEF773FF06900799FEF769FF0B907B
:1013400063480068014604904FF08040FEF766FF56
:1013500005905F484068014604900598FEF75EFFDF
:1013600007905B488068014604904FF08040FEF78C
:1013700055FF05905648C068014604900598FEF751
:101380004DFF06900799FEF7F1FE0A9050488068DD
:10139000014604904FF08040FEF740FF05904C4816
:1013A0008068014604900598FEF738FF079048488A
:1013B0004068014603904FF08040FEF72FFF0490F5
:1013C00043484068014603900498FEF727FF4FF01A
:1013D0007E510590FEF71FFF06900799FEF718FF54
:1013E00009901E98B0F90A000690FFF7A0F8079040
:1013F000384801680798FEF711FF089036490898A9
:10140000FFF70AF904D335490898FFF7FBF80DD226
:1014100020990898FEF702FF07901F988068014600
:1014200006900798FEF7A2FE1F9988602C48006876
:10143000FFF7B8F8CDE904010B98FFF7B3F8CDE951
:10144000000102F00BF9CDE90201DDE90423FEF70A
:10145000FCFFCDE90601FFF7B8F81F994860DDE908
:10146000091002F033FA07901D4801680798FEF74B
:10147000D5FE1F9908601E98B0F904000490FFF78C
:1014800056F805900999FEF7C9FE07901E98B0F925
:1014900002000290FFF74BF803900A99FEF7BEFE98
:1014A00005901E98B0F900000290FFF740F80390F5
:1014B0000B99FEF7B3FE04900599FEF757FE0690D0
:1014C0000799FEF753FE0749086021B000BD0000F0
:1014D000E8000020E43E000800004040000040C05A
:1014E000DC3E0008DC000020014800687047000076
:1014F000DC00002000BF0E4801684FF0E020826948
:101500000B4800688142F6D10A48006800EB4003AE
:10151000C3EBC010C2EBC000064B1B68B0FBF3F07E
:1015200001EB4103C3EBC11300EBC30070470000A4
:10153000180000201400002000BFFEE72DE9F84F3E
:10154000054603236A463321C02000F0FBFB012837
:1015500009D177498988A1F57A70FEF7E8FF7549C6
:101560008862BDE8F88F9DF8000000049DF8011026
:1015700040EA01209DF8021008436F4908600846C0
:1015800000686E49884200D9EBE7FFF7ADFF0746D8
:10159000FEF7DBFF04B26A48007800F0010008B9EA
:1015A0006848048067480088201A06B262480068CC
:1015B000FEF7C6FF8346644801685846FEF728FEDA
:1015C00082466249FEF72AFE81462946FEF758FE0A
:1015D00007463046FEF7ABFF83462946FEF71EFE60
:1015E00082465448416A5046FEF7C0FD814658493C
:1015F000FEF714FE80463946FEF7B8FD4D494862B5
:101600004D480068FEF79CFF524948624E49086009
:101610004B48007800F0010010B9FF204E490870D7
:101620004D480078012806D0022815D01F281FD069
:10163000FF2875D16BE042480078C0F3400050B1FC
:101640003F48007800F0010028B104204349887029
:1016500002204149087067E035498988A1F57A7010
:10166000FEF765FF3E4908601F203B4908705BE0BC
:101670002F48808840F23A71884218DA2C488088D6
:1016800040F27E41884212DD3648007830B90120B0
:10169000344908702F48406A2E49086029462D4871
:1016A00002F0E2FA2B48806A2249086017E02048DD
:1016B000808840F2A461884206DD00202949087034
:1016C00029481C4908600AE019488088B0F5966FDF
:1016D00005DA002023490870244816490860294685
:1016E000144802F0C1FA1349886A1D490968FEF7D7
:1016F0003DFD1049886212480078C0F3400028B9C7
:10170000002016498870FF20134908700CE0022160
:10171000174802F093FA01200F49087004E0FFE730
:1017200001200D49087000BF00BF00BF19E700008D
:10173000140100205C020020CC000020809698005C
:1017400022000020CA000020D40000200AD7A33CB9
:1017500048E17A3F90020020C80000203C000020B1
:10176000D0000020D800002000009643000048C3AD
:10177000B800002008B540203049086001200090E2
:1017800004E09DF80000401EC0B200909DF80000EB
:101790000028F6D18020294908600120009004E04B
:1017A0009DF80000401EC0B200909DF80000002887
:1017B000F6D140202149091F08600120009004E073
:1017C0009DF80000401EC0B200909DF80000002867
:1017D000F6D10120009004E09DF80000401EC0B248
:1017E00000909DF800000028F6D10120009004E050
:1017F0009DF80000401EC0B200909DF80000002837
:10180000F6D10120009004E09DF80000401EC0B217
:1018100000909DF800000028F6D14020074908609C
:101820000120009004E09DF80000401EC0B200902E
:101830009DF800000028F6D108BD0000140C0140FE
:1018400008B54020304908600120009004E09DF870
:101850000000401EC0B200909DF800000028F6D1A4
:1018600080202949091F08600120009004E09DF8AC
:101870000000401EC0B200909DF800000028F6D184
:1018800040202149091F08600120009004E09DF8D4
:101890000000401EC0B200909DF800000028F6D164
:1018A0000120009004E09DF80000401EC0B20090AE
:1018B0009DF800000028F6D10120009004E09DF87A
:1018C0000000401EC0B200909DF800000028F6D134
:1018D0000120009004E09DF80000401EC0B200907E
:1018E0009DF800000028F6D140200749086001203B
:1018F000009004E09DF80000401EC0B200909DF8EA
:1019000000000028F6D108BD140C014008B50821DC
:10191000002080222C4B1A604CE04206100E402220
:10192000294B1B1D1A600122009204E09DF8002043
:10193000521ED2B200929DF80020002AF6D1012258
:10194000009204E09DF80020521ED2B200929DF851
:101950000020002AF6D140221B4B1A60012200927F
:1019600004E09DF80020521ED2B200929DF80020A3
:10197000002AF6D10122009204E09DF80020521EB8
:10198000D2B200929DF80020002AF6D101220092E6
:1019900004E09DF80020521ED2B200929DF8002073
:1019A000002AF6D1084A083A126802F080020AB109
:1019B00040F001000A00A1F10103D9B2ADD14022EB
:1019C000014B1B1D1A6008BD100C014008B5082111
:1019D00050E040222C4B1A600122009204E09DF856
:1019E0000020521ED2B200929DF80020002AF6D1AB
:1019F00000F0800222B18022234B1B1F1A6002E0FC
:101A00008022214B1A604206100E0122009204E04F
:101A10009DF80020521ED2B200929DF80020002AAC
:101A2000F6D14022184B1B1F1A600122009204E0DD
:101A30009DF80020521ED2B200929DF80020002A8C
:101A4000F6D10122009204E09DF80020521ED2B28D
:101A500000929DF80020002AF6D10122009204E0B5
:101A60009DF80020521ED2B200929DF80020002A5C
:101A7000F6D100BF0A00A1F10103D9B2A9D14022D9
:101A8000014B1A6008BD0000140C014008B580200D
:101A900022490860402008600120009004E09DF881
:101AA0000000401EC0B200909DF800000028F6D152
:101AB0001A480838006808B9012000E0002000F04A
:101AC000800008B1012008BD80201449091D08606C
:101AD0000120009004E09DF80000401EC0B200907C
:101AE0009DF800000028F6D10C480838006800F086
:101AF000800008B10120E6E740200849091D086080
:101B00000120009004E09DF80000401EC0B200904B
:101B10009DF800000028F6D100BFD4E7100C01406A
:101B200008B54020244908600120009004E09DF899
:101B30000000401EC0B200909DF800000028F6D1C1
:101B400080201D4908600120009004E09DF80000FD
:101B5000401EC0B200909DF800000028F6D1012080
:101B6000009004E09DF80000401EC0B200909DF877
:101B700000000028F6D140200F49091F086001200D
:101B8000009004E09DF80000401EC0B200909DF857
:101B900000000028F6D180200749091F08600120B5
:101BA000009004E09DF80000401EC0B200909DF837
:101BB00000000028F6D108BD140C014008B54020F3
:101BC0002A4908600120009004E09DF80000401EB2
:101BD000C0B200909DF800000028F6D18020234973
:101BE000091F08600120009004E09DF80000401EDD
:101BF000C0B200909DF800000028F6D140201B499B
:101C0000091F08600120009004E09DF80000401EBC
:101C1000C0B200909DF800000028F6D1012000908D
:101C200004E09DF80000401EC0B200909DF8000046
:101C30000028F6D10120009004E09DF80000401E2D
:101C4000C0B200909DF800000028F6D107480C387B
:101C5000006800F0800020B14020044908600120A5
:101C600008BD4020014908600020F9E7140C01403C
:101C700008B50121082000F055FDC020ADF8000096
:101C800003208DF8020014208DF8030069460248F5
:101C9000FEF7E4FF08BD0000000C014070B50446EB
:101CA0000D460026FFF7F2FE012800D170BD204648
:101CB000FFF78CFEFFF782FF012803D1FFF730FF0B
:101CC0000120F3E72846FFF781FEFFF777FFFFF7D4
:101CD00027FFFFF7DBFE611CC8B2FFF777FEFFF7B7
:101CE0006DFF012803D1FFF71BFF0120DEE7FFF79F
:101CF0000DFE0646FFF7A4FDFFF712FF70B2D5E711
:101D000070B506460C461546FFF7C0FE012800D107
:101D100070BD3046FFF75AFEFFF750FF012803D190
:101D2000FFF7FEFE0120F3E72046FFF74FFEFFF727
:101D300045FF2846FFF74AFEFFF740FFFFF7F0FE9A
:101D40000020E5E72DE9F04106460F4615461C4602
:101D5000FFF79CFE012801D1BDE8F0813046FFF776
:101D600035FEFFF72BFF012803D1FFF7D9FE012035
:101D7000F2E73846FFF72AFEFFF720FFFFF7D0FE15
:101D8000FFF784FE711CC8B2FFF720FEFFF716FFB5
:101D9000012803D1FFF7C4FE0120DDE70CE0FFF7C7
:101DA000B5FD2870012C02D1FFF74AFD01E0FFF7D5
:101DB000E1FC6D1C601EC4B2002CF0D1FFF7B0FE38
:101DC0000020C9E708B54FF000700A4948600121BA
:101DD000082000F0A7FC40F20220ADF8000010201F
:101DE0008DF8030003208DF8020069460248FEF7D3
:101DF00035FF08BD00000140000C014000BFFEE7B8
:101E00002DE9F0479A48007800F0010010B9FF2052
:101E10009849087097480078012806D0022813D006
:101E20001F281BD0FF287DD1BDE000209249C8802B
:101E30008880488008808E48007800F0010010B14A
:101E400002208C49087000BF8C48808840F24C41C9
:101E5000884202DD1F2087490870AFE0844800787F
:101E6000C0F3400028B18649886AFEF76EFB04B2D1
:101E700010E082488088B0F57F7F06DA00207E4936
:101E8000C88088804880088098E07C488088A0F5D9
:101E90007A7004B2002C01DA002006E0B4F5487F25
:101EA00002DD4FF4487000E020467349C880888006
:101EB00048800880734A916A734A906AFEF7A8F9CD
:101EC00080467248816A4046FEF7A2F906466A4992
:101ED000B1F90000FEF72BFB07463146FEF746F945
:101EE0000546FEF732FB00B263490880654A916AF5
:101EF000654A906AFEF73AF980466448816A40462E
:101F0000FEF734F906465C49B1F90200FEF70FFB13
:101F100007463146FEF72AF90546FEF716FB00B2E2
:101F2000554900E049E048805748806A80F0004801
:101F30005448816A4046FEF719F907465348816ABA
:101F40003846FEF765F906464B49B1F90400FEF73D
:101F5000EEFA81463146FEF709F90546FEF7F5FA35
:101F600000B2454988804848806A80F0004845486A
:101F7000816A4046FEF74CF907464448816A384674
:101F8000FEF7F4F806463C49B1F90600FEF7CFFA31
:101F900081463146FEF7EAF80546FEF7D6FA00B26A
:101FA0003549C8800AE000203349C88088804880CD
:101FB000088001202F49087000E000BF00BF2E48B4
:101FC000B0F90000002801DA00200BE02A48B0F93F
:101FD0000000B0F57A7F02DD4FF47A7002E0264807
:101FE000B0F900004FF0804188862348B0F9020024
:101FF000002801DA00200BE01F48B0F90200B0F51C
:102000007A7F02DD4FF47A7002E01B48B0F90200DB
:102010004FF0804108871848B0F90400002801DA21
:1020200000200BE01448B0F90400B0F57A7F02DD1F
:102030004FF47A7002E01048B0F904004FF080418C
:1020400088870D48B0F90600002801DA00200BE06F
:102050000948B0F90600B0F57A7F02DD4FF47A70D6
:1020600002E00548B0F9060009490880BDE8F0879C
:1020700022000020DA000020C0000020140100200F
:102080005C02002058010020240100208C01002067
:10209000400000402DE9FE4F06236A463B21D02038
:1020A000FFF750FE06230DF106024321D020FFF773
:1020B00049FE002458E0012000EB44001DF8000018
:1020C0001DF8141040EA0120294931F81410401A73
:1020D00000B22849096821F81400032C1BDA2549AD
:1020E000096831F91400FEF722FA054604EB4401B1
:1020F000214A02EBC100294601F039FD04EB4401FD
:102100001D4A02EBC1018868FEF71FFA00B21949A7
:10211000096821F81400022C24DDE01EC5B2DFF8A6
:102120005C801449096831F91400FEF700FA824610
:102130004146FEF773F80746114951F82500114949
:10214000FEF76CF881463946FEF710F80C4941F865
:1021500025000646FEF7F9F900B20649096821F89C
:10216000140000BF601CC4B2062CA4DBBDE8FE8FC7
:10217000C402002044000020480000209A99193E23
:10218000D00200209A99593FF0B58BB0182105A8CC
:10219000FDF7E1FF1E2505267742002003900490FD
:1021A000404800210160416081604FF400503D498A
:1021B0008880002201213C4800F04EFF3BE000BF38
:1021C0000A2001F0C3FCFFF765FF002416E0374842
:1021D0000168E01C31F8100003A931F81410401A0E
:1021E00000B201A921F8140030480168E01C31F860
:1021F000100003A921F81400601C04B2032CE6DBD4
:10220000BDF904000528DBDCBDF9040010F1050F61
:10221000D6DBBDF906000528D2DCBDF9060010F1B9
:10222000050FCDDBBDF908000528C9DCBDF90800A4
:1022300010F1050FC4DB2800A5F10101CDB2BED11C
:10224000002417E0FFF726FF642C11DB00200CE0D0
:1022500005A951F82010154A126832F910201144CE
:1022600005AA42F82010411CC8B20628F0DB00BFC6
:10227000601C04B2B4F5B27FE4DB002409E005A8D9
:1022800050F82400001200B2064921F81400601C26
:1022900004B2062CF3DB01221146034800F0DCFEF9
:1022A0000BB0F0BDC4020020000400404400002038
:1022B00010B5002400BF80226B21D020FFF720FD45
:1022C000C4B21E2001F042FC02221921D020FFF7E7
:1022D00017FD2044C4B203226B21D020FFF710FD6C
:1022E0002044C4B203221A21D020FFF709FD204464
:1022F000C4B210221B21D020FFF702FD2044C4B23B
:1023000009221C21D020FFF7FBFC2044C4B2002C82
:10231000D1D17521D020FFF7C1FCC4B2682C03D005
:10232000982C01D0012010BDFFF72EFF0020FAE706
:10233000704700001FB510A103C9CDE902010522B5
:1023400002A9302000F0BEF805226946102000F0F6
:1023500067F8002406E01DF80400A52800D003E07B
:10236000601CC4B2052CF6DB00BF052C02D0012096
:1023700004B010BD0020FBE7A5A5A5A5A5000000A1
:1023800008B50121042000F0CDF94FF40060ADF84C
:10239000000010208DF8030003208DF8020069462C
:1023A0001D48FEF75BFC0121082000F0BBF94FF44B
:1023B0008050ADF8000010208DF8030003208DF848
:1023C000020069461548FEF749FC4FF400601249C7
:1023D0001031086040001149103108600011ADF85B
:1023E000000048208DF8030003208DF802006946A4
:1023F0000948FEF733FC4FF480710748FEF7B9FC3B
:1024000000F0DCFB4FF40060034914310860400029
:1024100002491031086008BD00080140000C01406D
:102420002DE9F04107460D4616464FF480500C4901
:102430000860384600F038FC8046002405E0FF20A4
:1024400000F032FC2855601CC4B2B442F7DB4FF4F4
:1024500080500349091F08604046BDE8F081000034
:10246000140C014070B504464FF4805007490860D1
:10247000204600F019FCFF2000F016FC05464FF442
:1024800080500249091F0860284670BD140C0140A5
:1024900070B504460720FFF7E5FF054629462720CB
:1024A00000F032F805F0400050B1202221466120B2
:1024B000FFF7B6FFFF21E22000F026F8002070BDF4
:1024C0000120FCE72DE9F04107460C4615464FF484
:1024D00080500C490860384600F0E6FB8046002634
:1024E00005E014F8010B00F0DFFB701CC6B2AE4231
:1024F000F7DB4FF480500349091F08604046BDE8F0
:10250000F0810000140C014070B505460C464FF4F4
:10251000805008490860284600F0C6FB0646204661
:1025200000F0C2FB4FF480500249091F086030469A
:1025300070BD0000140C014010B5FFF721FF00BF73
:1025400000F004FBFFF7F6FE0128F9D010BD0000F3
:1025500070B5002100230F22C47804B3154C246801
:1025600004F4E064C4F5E064210AC1F10403CA4044
:10257000447804FA03F184781440214309010E4C95
:102580000678A155047804F01F050124AC400578B5
:102590006D11AD0005F1E025C5F8004109E00478B2
:1025A00004F01F050124AC40044D0678761145F86F
:1025B000264070BD0CED00E000E400E080E100E0AA
:1025C00002490143024A1160704700000000FA0509
:1025D0000CED00E07047000032480068324909689D
:1025E000401A32490988884200D270472D48006855
:1025F0002D4908602D48807806284BD2DFE800F08E
:1026000018030A202B3A4FF4007029490860022071
:10261000086043E026480838006880F0020024493A
:10262000083908600846006880F40070086035E0EA
:102630004FF400701E49091F0860022008602DE059
:102640004FF400701A49091F08600220091D086034
:102650001649887022E0022015490860144808389D
:10266000006880F4007012490839086064200F493E
:10267000088013E04FF400700D4908600C480838DA
:10268000006880F002000A490839086046200749BE
:10269000088003E001200549887000BF00BF00BF2B
:1026A000A3E7000018000020400000203C000020AC
:1026B000140C01402DE9F05F04464FF07F594FF0B4
:1026C0007C512046FDF7AAFD824625462E460C4841
:1026D000A0EB6606354629465046FDF79FFD83462A
:1026E0002946FDF79BFD80464946FDF794FD0746C8
:1026F0002946FDF793FD05462846BDE8F09F0000FA
:10270000DF59375F29B1064AD2690243044BDA61C7
:1027100004E0034AD2698243014BDA61704700004A
:102720000010024029B1064A92690243044B9A61A3
:1027300004E0034A92698243014B9A6170470000AA
:102740000010024030B500210022002400232D4D4E
:102750006D6805F00C0121B1042905D0082923D1A9
:1027600005E0294D056022E0274D05601FE0254D5D
:102770006D6805F47012234D6D6805F480340225F0
:1027800005EB92421CB9214D554305600BE01D4DF0
:102790006D6805F400351DB11C4D5543056002E020
:1027A000194D5543056002E0174D056000BF00BF9D
:1027B000144D6D6805F0F0010909154D6B5C056855
:1027C000DD4045600F4D6D6805F4E061090A104D6C
:1027D0006B5C4568DD4085600A4D6D6805F46051AD
:1027E000C90A0B4D6B5C4568DD40C560054D6D68E1
:1027F00005F44041890B074D6B5CC568B5FBF3F5EB
:10280000056130BD0010024000127A0000093D0051
:1028100025000020350000202DE9F041C148FFF7D8
:1028200037FE00287CD10025BF490880002405E040
:10283000BC48005D2844C5B2601CC4B21F2CF7DB45
:10284000B848C07FA8426CD1B6480078AA28FAD10F
:10285000B4484078AF28F6D1B2484079B1490979F7
:1028600040EA0120B149088008460088B0F57A7F27
:1028700002DA4FF47A7009E0AC480088B0F5FA6FDC
:1028800002DD4FF4FA6001E0A8480088A7490880FB
:10289000A448C079A349897940EA0120A349488026
:1028A00008464088B0F57A7F02DA4FF47A7009E082
:1028B0009E484088B0F5FA6F02DD4FF4FA6001E0FF
:1028C0009A484088994948809648407A9549097ABB
:1028D00040EA01209549888008468088B0F57A7FD3
:1028E00002DA4FF47A7009E090488088B0F5FA6F08
:1028F00002DD4FF4FA6001E08C4880888B498880C3
:102900008848C07A8749897A40EA01208749C88087
:102910000846C088B0F57A7F04DA4FF47A700BE08D
:10292000E9E0E7E08148C088B0F5FA6F02DD4FF4D6
:10293000FA6001E07D48C0887C49C8807948407BC6
:102940007849097B40EA01207849088108460089D6
:10295000B0F57A7F02DA4FF47A7009E073480089A3
:10296000B0F5FA6F02DD4FF4FA6001E06F480089BC
:102970006E4908816B48C07B6A49897B40EA012027
:102980006A49488108464089B0F57A7F02DA4FF4F7
:102990007A7009E065484089B0F5FA6F02DD4FF4BE
:1029A000FA6001E061484089604948815D48407CA7
:1029B0005C49097C40EA01205C498881084680899D
:1029C000B0F57A7F02DA4FF47A7009E057488089CF
:1029D000B0F5FA6F02DD4FF4FA6001E053488089E8
:1029E000524988814F48C07C4E49897C40EA012089
:1029F0004E49C8810846C089B0F57A7F02DA4FF4A3
:102A00007A7009E04948C089B0F5FA6F02DD4FF4E9
:102A1000FA6001E04548C0894449C881444F49886B
:102A200040F2DC52501AFDF782FD06463946FDF7AA
:102A3000F5FB404908603D49098840F2DC52501AD4
:102A4000FDF775FD06463946FDF7E8FB3A49086093
:102A50003648C08840F21C71884207DD3749086853
:102A60003749FDF783FB354908600CE02F48C088E3
:102A700040F29C41884206DA304908683049FDF747
:102A8000C7FB2E4908602948008940F2A4618842AA
:102A900007DD2C48007820F00200801C29490870CE
:102AA00005E02848007820F00200264908701F49F8
:102AB0008888FDF745FD80462349FDF7AFFB0646B4
:102AC000FDF75CFD1949888008468088B0F57A7F5B
:102AD00002DA4FF47A7009E014488088B0F5FA6F92
:102AE00002DD4FF4FA6001E0104880880F498880C9
:102AF00001F03AF913E00C480088401C0A490880AC
:102B000008460088B0F5FA6F09DD002008800D48FE
:102B1000007820F001000B490870FFF70DFDBDE8BB
:102B2000F08100002B0300209A00002014010020F7
:102B30000AD7233DC0010020F40100202802002014
:102B40006666E63E220000206666663F10B54FF4DA
:102B5000006012490860052211492A20FFF7B2FCE3
:102B600001212120FFF7D0FC01212220FFF7CCFC1E
:102B700028212520FFF7C8FC20213120FFF7C4FCC5
:102B80000F212620FFF7C0FC0F212020FFF7BCFCFF
:102B90004FF400600149091F086010BD140801408E
:102BA000D13E000821B1028842F04002028004E0D8
:102BB00002884FF6BF731A400280704700B587B095
:102BC00001218803FFF79EFD01210920FFF7AAFDDF
:102BD0004FF480511C48FEF7CCF84FF46040ADF83C
:102BE000040003208DF8060018208DF8070001A9C5
:102BF0001548FEF733F800211448FFF7D3FF0020F3
:102C0000ADF808004FF48270ADF80A000020ADF86E
:102C10000C00ADF80E00ADF810004FF40070ADF8E8
:102C200012001020ADF814000020ADF816000720A7
:102C3000ADF8180002A9054800F018F80121034872
:102C4000FFF7B0FF07B000BD000C014000380040A6
:102C50000246002013890B400BB1012000E0002048
:102C600070470146888970478181704710B50022FE
:102C7000028802F441520B884C8823438C882343FA
:102C8000CC8823430C8923434C8923438C892343D9
:102C9000CC8923431A430280838B4FF2FF74234075
:102CA00083830B8A038210BD10B5044600BF022146
:102CB0000A48FFF7CDFF0028F9D021460748FFF763
:102CC000D3FF00BF01210548FFF7C2FF0028F9D05C
:102CD0000248FFF7C6FFC0B210BD00000038004038
:102CE000704710B500F002F810BD00000CB50020D0
:102CF000019000903348006840F48030314908600A
:102D000000BF3048006800F4003000900198401C7B
:102D10000190009818B90198B0F5A06FF1D1294839
:102D2000006800F4003010B10120009001E00020A4
:102D300000900098012843D12348006840F010001B
:102D4000214908600846006820F003000860084632
:102D5000006840F0020008601A484068194948605D
:102D60000846406848600846406840F48060486013
:102D70000846406820F47C1048600846406840F4EB
:102D8000E81048600846006840F08070086000BFA6
:102D90000C48006800F000700028F9D0094840682D
:102DA00020F00300074948600846406840F00200F0
:102DB000486000BF0348406800F00C000828F9D1C3
:102DC0000CBD0000001002400020024002480068D4
:102DD000401C0149086070471800002010B51348D6
:102DE000006840F001001149086008464068104939
:102DF00008400E494860084600680E4908400B49E3
:102E000008600846006820F4802008600846406892
:102E100020F4FE0048604FF41F008860FFF761FF58
:102E20004FF000600449086010BD0000001002402F
:102E30000000FFF8FFFFF6FE08ED00E000B589B0E6
:102E400001210420FFF76EFC0F20ADF804000320E1
:102E50008DF8060018208DF8070001A92848FDF715
:102E6000FDFE01210846FFF74DFC40F2E730ADF8CA
:102E70001C000820ADF818000020ADF81E00ADF8C9
:102E80001A0006A94FF0804000F04CFA6020ADF81F
:102E900008000120ADF80A000020ADF80E00ADF8E2
:102EA000100002A94FF0804000F0E0F80821C806A9
:102EB00000F028F902A94FF0804000F02DF9082118
:102EC000C80600F07BF902A94FF0804000F084F9B9
:102ED0000821C80600F0D0F902A94FF0804000F0A8
:102EE000D5F90821C80600F00FFA0121880700F083
:102EF00087F80121880700F092F809B000BD0000B2
:102F0000000801401FB501210220FFF7FBFB1D2037
:102F10008DF8000001208DF8010003208DF80200DB
:102F200001208DF803006846FFF712FB40F22B10DA
:102F3000ADF8080040F2CF20ADF804000020ADF855
:102F40000A00ADF8060001A9064800F0EBF90122DD
:102F50001146044800F080F80121024800F05FF8B3
:102F60001FBD00000004004010B501211B4800F007
:102F700062F8002831D01A480068401C18490860DF
:102F800018480078401C1749087017480078401C02
:102F9000154908701348007801280BD10020114909
:102FA0000870FFF777F8FFF737FC1048FDF78EFD44
:102FB000FEF726FF0C48007802280AD100200A49B3
:102FC00008700B4A0B490C48FDF7D6FE0B48FEF77C
:102FD000B5FA0121014800F01FF810BD00040040BF
:102FE000180000202300002024000020A69B443B62
:102FF000B020CD3B08010020FC000020A69BC43B74
:1030000021B1028842F08002028004E002884FF67B
:103010007F731A4002807047CA430282704721B111
:10302000028842F00102028004E002884FF6FE733B
:103030001A400280704730B5024600200023002469
:10304000158A05EA0103958905EA010413B10CB15B
:10305000012000E0002030BD1AB183890B43838139
:1030600002E083898B4383817047000070B50024A0
:1030700000220023058C4FF6FE7635400584028C35
:103080008388048B4FF68F752C40B51E2C400D881D
:103090002C43751E2A400D892A434D882A43144D1E
:1030A000A8420BD0134DA84208D0134DA84205D01A
:1030B000124DA84202D0124DA84213D14FF6F77517
:1030C0002A404D892A434FF6FB752A408D882A43B2
:1030D0004FF6FF652B404FF6FF552B408D892B4354
:1030E000CD892B4383800483CD888586028470BD7F
:1030F000002C0140003401400040014000440140E8
:10310000004801400A460021018B4FF6F773194031
:10311000114301837047000070B500240022002392
:10312000058C4FF6EF7635400584028C8388048B3E
:1031300048F6FF752C404FF6FF452C400D884FF6A2
:10314000FF7606EA05252C434FF6DF752A400D89E8
:1031500006EA05152A434D8806EA05152A43154D4A
:10316000A84202D0144DA8421DD14FF67F752A40C7
:103170004D894FF6FF7606EA05152A434FF6BF75CF
:103180002A408D8806EA05152A434FF6FF352B4065
:103190004FF2FF752B408D8906EA85052B43CD89BB
:1031A00006EA85052B4383800483CD880587028446
:1031B00070BD0000002C0140003401400A4600218F
:1031C000018B4FF2FF7319404FF6FF7303EA02239E
:1031D000194301837047000070B5002400220023CA
:1031E000058C4FF6FF6635400584028C8388848BFE
:1031F0004FF68F752C404FF6FC752C400D882C43F4
:103200004FF6FF552A400D894FF6FF7606EA052551
:103210002A434D8806EA05252A43154DA84202D0C7
:10322000144DA8421DD14FF2FF752A404D894FF62B
:10323000FF7606EA05252A434FF6FF352A408D889A
:1032400006EA05252A434EF6FF752B404DF6FF751D
:103250002B408D8906EA05152B43CD8906EA051515
:103260002B4383808483CD888587028470BD0000D2
:10327000002C0140003401400A460021818B4FF6AA
:10328000F7731940114381837047000070B5002225
:1032900000230024058C4EF6FF7635400584038C10
:1032A0008488828B48F6FF752A404FF6FF452A40F6
:1032B0000D884FF6FF7606EA05252A434DF6FF7581
:1032C0002B400D8906EA05352B434D8806EA053566
:1032D0002B430B4DA84202D00A4DA84208D14BF611
:1032E000FF752C408D894FF6FF7606EA85152C4335
:1032F00084808283CD88A0F84050038470BD000094
:10330000002C0140003401400A460021818B4FF21D
:10331000FF7319404FF6FF7303EA022319438183B9
:1033200070470000002202881D4B98420ED01D4BB2
:1033300098420BD0B0F1804F08D01B4B984205D07B
:103340001A4B984202D01A4B984204D14FF68F7311
:103350001A404B881A43174B984207D0164B984295
:1033600004D04FF6FF431A40CB881A4302808B8863
:1033700083850B8803850A4B98420BD0094B9842F2
:1033800008D00E4B984205D00D4B984202D00D4B01
:10339000984201D10B7A0386012383827047000093
:1033A000002C0140003401400004004000080040AF
:1033B000000C00400010004000140040004001409C
:1033C000004401400048014070B53C4800883B483B
:1033D000008840F22551084000286ED03748001D73
:1033E000008840B23649374A127888543548007808
:1033F00010B101281AD10AE0314890F90000563086
:1034000020B930480078401C2E49087054E02C4800
:1034100090F90100513028B92A480078401C294908
:10342000087002E000202749087045E0244890F920
:103430000300001D23490978884205DD21480078F2
:10344000401C2049087037E00025002405E01C4896
:10345000005D284445B2601CC4B21A48007884421A
:10346000F5DB1748174909784056A8421CD1144883
:10347000807815490871084645710020887100243C
:1034800009E0114880791049095D084440B20E49AD
:103490008871601CC4B2062CF3DB07210A4800F0D7
:1034A00015F80748FDF792FA00200649087004490C
:1034B0000870487000BF00BF00BF70BD00480040EA
:1034C00012030020920000209300002070B50546F2
:1034D0000E4600240DE000BF0748008800F0800081
:1034E0000028F9D0285781B2034800F007F8601C83
:1034F000C4B2B442EFDB70BD00480040C1F3080223
:103500008280704700BFFEE7490050EAC12018BF23
:1035100004204A0D18BF40F0010040F2FF72B2EBE8
:10352000515F08BF40F00200012808BF0520704726
:103530004100080218BF04200A0E18BF40F0010025
:103540004FF07F4232EA010108BF40F0020001283B
:1035500008BF052070472DE9F0414F1E00EBC70161
:103560000446D1E9000115461E4637F006020DD08B
:103570002A463346FCF769FF7F1E04EBC703D3E9F5
:103580000023FCF7BBFE37F00602F1D1022F25D055
:10359000042F13D0062F18BFBDE8F0812A4633460A
:1035A000FCF753FFD4E90A23FCF7A8FE2A4633466A
:1035B000FCF74BFFD4E90823FCF7A0FE2A4633466C
:1035C000FCF743FFD4E90623FCF798FE2A4633466E
:1035D000FCF73BFFD4E90423FCF790FE2A46334670
:1035E000FCF733FFD4E90223FCF788FE2A46334672
:1035F000FCF72BFFD4E90023BDE8F041FCF77EBEC9
:103600000122FDF743B90022134610461146FDF78B
:10361000CEB80000024A00201107FDF737B90000BC
:1036200001FDFFFFFCF7A2BD6FF05E010807FDF78B
:1036300055B802E008C8121F08C1002AFAD1704725
:103640007047002001E001C1121F002AFBD1704722
:103650000149086070470000F80000202DE9F04D96
:103660008D4F21F0004A86B005460C46BA452ADB4C
:10367000AAEB070028430AD08848824501DC1AD10A
:10368000CDB106B02846BDE8F04DFFF7B9BF844A7A
:10369000844B2846FCF7D9FE07460E46824A834BE8
:1036A00028462146FCF7D1FE06B03A463346BDE82F
:1036B000F04DFCF723BE0120FFF7CAFF06B0BDE8BE
:1036C000F04DFFF7A0BF7A48824542DABAF1795F40
:1036D0000BDA2846FFF718FF042808BFFFF79AFF08
:1036E000284606B02146BDE8F08D2A460B46104616
:1036F000FCF7ABFE834602466E480E460B4606219B
:103700007844FFF728FF5A463346FCF79EFE804672
:1037100069488A465A46334604217844FFF71BFF1E
:103720005A463346FCF791FE00223B46FCF7E6FD85
:1037300002460B4640465146FDF739F82A462346D5
:10374000FCF783FE06B02A462346BDE8F04DFCF7A1
:10375000D5BD284624F0004100223D463B46FCF7FB
:1037600071FE4FF0FF32FDF791F8064602465348CE
:103770000F460B4606217844FFF7EDFE32463B46E6
:10378000FCF763FECDE900014D4832463B4604217B
:103790007844FFF7E0FE32463B46FCF756FE002237
:1037A0002B46FCF7ABFD834602913046394600F0CC
:1037B00067FB804643480D46504517DCDDE90001B4
:1037C0005A46029BFCF7F3FF42462B46FCF73DFEB0
:1037D00042462B46FCF792FD0122FDF757F8304A8E
:1037E000304BFCF72CFE304A304B4CE04FF0000AD7
:1037F00052460B464046FCF781FDCDE90310524688
:103800002B4610461946FCF720FE32463B46FCF795
:1038100019FEDDE90332FCF7CAFF06460F46DDE973
:1038200000015A46029BFCF7C2FF83460091012229
:1038300030463946FDF72AF8194A1A4BFCF702FEC2
:1038400006460F46012240462946FDF71FF85A4614
:10385000009BFCF7FAFD32463B46FCF7F0FD0646BE
:103860000F46012250462946FDF710F80E4DDFF8AD
:1038700058802A464346FCF7E5FD32463B46FCF7B6
:10388000E1FD2A464346FCF7DDFD002CD8BF81F060
:10389000004106B0BDE8F08D0000F03F0000F07F71
:1038A000075C143326A6913C182D4454FB21F93FA4
:1038B0000000E03FEC07000002080000760700006F
:1038C0008C0700003333EF3FFB21E93F2DE9F04740
:1038D0004FF0684202EB40030C460546B3F1654FDA
:1038E0003CBF02EB4102B2F1654F7CD2C0F3C7533B
:1038F000C1F3C7529A1A1B2A06DD10F0004F14BFFD
:1039000076487748BDE8F08712F11A0F17DA11F000
:10391000004F06D010F0004F0CBF72487248BDE84F
:10392000F08721462846FCF7ABFC0446FFF700FE73
:10393000042808BFFFF778FE2046BDE8F087420064
:10394000B2EB410F25D910F0004F19BF674F684EF9
:10395000684F694E224685F0004415460A4680F0BD
:10396000004110460A1A5200B2F1807F40D248400E
:103970006249DFF88CA110F0004F18D04FF03F489B
:103980003846FCF745FC074651463046FCF740FCFC
:1039900017E011F0004F04BF00263746E2D010F0C8
:1039A000004F19BF574F584E584F594EDAE74FF056
:1039B0007C583846FCF7DAFB074651463046FCF7A0
:1039C000D5FB064641462846FCF728FC2146FCF775
:1039D000CDFB824621464046FCF720FC2946FCF7F9
:1039E0001AFC514600E037E0FCF74AFC044604E0CC
:1039F00021462846FCF744FC04460146FCF70EFC31
:103A000080464449FCF70AFC4349FCF7AFFB4146BA
:103A1000FCF704FC4149FCF7A9FB4146FCF7FEFB1F
:103A20003F49FCF7A3FB4146FCF7F8FB3D49FCF797
:103A30009DFB054641462046FCF7F0FB2946FCF776
:103A4000EDFB3146FCF792FB2146FCF78FFB394634
:103A5000BDE8F047FCF78ABB4FF07F42B2EB400F66
:103A600028BFB2EB410F03D2BDE8F047FFF7DABD44
:103A700040EA01035B0008BF44F0FF410AD0B2EB0B
:103A8000400F08BFB2EB410F06D125F0804024F073
:103A9000804105460C4629E7B2EB400F12BF5FEAB2
:103AA000410245F0FF4004F000413FF41FAF4A00DF
:103AB00092EA40033FF51AAF002AACBF4FF09F4691
:103AC0004FF03E563146FCF7A9FB054631462046ED
:103AD000FCF7A4FB04462846214607E7DB0FC9BFD5
:103AE000DB0FC93FDB0F4940DB0F49C00000C9BFF6
:103AF00022AAFDB90000C93F22AAFD390060ED3EAF
:103B0000C30ACE37000049C022AA7DBA000049404E
:103B100022AA7D3A2DAD65BD8FB8D53D0FB511BE3A
:103B200061C84C3EA8AAAABE00B585B06846FEF79B
:103B300009FE04490098B0FBF1F00349086005B0A4
:103B400000BD000040420F001400002030B50446C4
:103B5000FDF7D0FC054600BFFDF7CCFC401B04EB95
:103B60004401C1EBC411B0EBC10FF5D330BD2DE959
:103B7000F04104460D4621692068FCF7F7FA6060C1
:103B800061696068FCF7F2FA064631466068FCF746
:103B900077FBE0602846A168FCF73AFB0746E1683E
:103BA000FCF73CFB0646A168FCF7E0FAA0604FF08A
:103BB0007E50E168FCF72CFB06466168FCF72EFBA3
:103BC0002060BDE8F0810000FFF7AEFF4FF4A06079
:103BD000FEF7F6FC164800684FF47A72B0FBF2F17B
:103BE000B1F1807F00D31DE021F07F40401E4FF0F7
:103BF000E022506150170F22002807DA13071D0E2C
:103C00000C4B00F00F04241F1D5503E013071C0E7E
:103C1000094B1C5400BF00204FF0E02290610720A8
:103C2000106100BFFCF7BDFE01E0FEF7D5FCFCE72C
:103C30000000002018ED00E000E400E010B50246AE
:103C400000200EE0002352F82040E36052F82040AC
:103C5000A36052F82040A36252F820406360431CE6
:103C6000D8B28842EEDB10BD2DE9F05F04460E4667
:103C7000616A2068FCF7CCFA80466168FCF776FA46
:103C8000054631462846FCF7C9FA8046E168FCF74C
:103C90006DFAE060A1682846FCF7BAFA8046314622
:103CA000FCF7EEFA0746A0693946FCF7B7FA8146F9
:103CB000E1686069FCF7B2FA824620692946FCF7A0
:103CC000ADFA83465146FCF751FA80464946FCF767
:103CD0004DFAA062A560BDE8F09F00004FF07E5055
:103CE00014490861144908611448154908614FF0E6
:103CF0007D501049486110494861002010494861D1
:103D000010480C4988610C4988610F480C4988614A
:103D10000E480F4908610F49086108480E490861BB
:103D20004FF07C500D490861074888610C480D49E7
:103D30000861704724010020580100200000404025
:103D40008C010020B81E053E9A99993E0000604003
:103D5000C0010020F4010020280200205C020020A5
:103D60000AD7233E900200204048808840F27E41DE
:103D7000884207DA3D48C088B0F5966F02DAFF2026
:103D80003B4908703A480078042829D006DC01280D
:103D900009D0022811D0032862D117E01F282DD0A6
:103DA000FF285DD149E03148808840F24C4188428B
:103DB00002DA02202E49087056E02C488088B0F5BF
:103DC000C86F02DD03202A4908704DE0274880882B
:103DD00040F24C41884202DA04202549087043E051
:103DE0002448007820F00100401C224908701F2060
:103DF0001F49087000202049887035E01B488088E2
:103E0000B0F57F7F0CDA1D4801880088401C1B4AF2
:103E10001080B1F5FA6F0FDDFF20154908700BE037
:103E20001448007800F0010018B9FF20104908700C
:103E300002E000201149088016E002200E49887037
:103E400000200E49088064200B490880094800784A
:103E500020F001000749087001200549087003E0BF
:103E6000FF200349087000BF00BF70471401002005
:103E70009C000020220000203C0000209E0000202A
:103E80002DE9F04106460F46FCF73AFD04000D46C9
:103E900018BF0120284320F00040C0F17F6000F1EE
:103EA000E040C00F0ED0301C18BF0120384320F076
:103EB0000040C0F17F6000F1E040C00F04BF01206E
:103EC000FFF7C6FB20462946BDE8F081E1E2E3E4C6
:103ED000E5E1E2E3E4E50000DB0F4940E12E654265
:103EE00035FA8E3CF6FFF93C2E9E0B3AD80FC93FAF
:103EF000555555555555C53F7D6FEB0312D6D4BF6B
:103F00005544880E55C1C93F3B8F68B52882A4BF70
:103F100088B20175E0EF493F09F7FD0DE13D023F31
:103F20004B2D8A1C273A03C0C88A599CE52A0040B9
:103F300059018D1B6C06E6BF82922EB1C5B8B33F06
:103F4000603F000800000020FC000000323600083E
:103F50005C400008FC0000205C06000042360008BF
:103F600000A24A0400000000000000000102030457
:103F70000607080900000000000000000000000023
:103F80000000000000000000000102030401020321
:103F90000406070809020406080000002C010200BC
:103FA00000000000FC0000200AD7A33C0000000035
:103FB00000000000000000006F12833A0C020B3F6B
:103FC0000AD7A33C00000000000000000000000031
:103FD0006F12833A0C020B3F0AD7A33C000000008B
:103FE00000000000000000006F12833A0C020B3F3B
:103FF000000000AAAAEF020000000000010000007B
:1040000024010020580100208C010020F401002030
:10401000C0010020280200205C0200209002002045
:10402000000000000000000001000000000000008F
:10403000000000000000000000010100000000007E
:10404000CDCC4C3F52499D390000803F000000001C
:0C40500000000000000000000000000064
:04000005080000ED02
:00000001FF
