:020000040800F2
:10000000D806002089010008390F0008710800088F
:10001000350F000835050008151A0008000000001B
:10002000000000000000000000000000651900084A
:10003000D906000800000000B9120008691900087C
:10004000A3010008A3010008A3010008A301000800
:10005000A3010008A3010008A3010008A3010008F0
:10006000A3010008A3010008A3010008A3010008E0
:10007000A3010008A3010008A3010008A3010008D0
:10008000A3010008A3010008A3010008A3010008C0
:10009000A3010008A3010008A3010008A3010008B0
:1000A000A3010008A3010008A3010008A3010008A0
:1000B000A3010008A3010008A3010008A301000890
:1000C000A3010008A3010008A3010008A301000880
:1000D000A3010008A3010008A3010008A301000870
:1000E000A3010008A3010008A301000800F002F822
:1000F00000F03AF80AA090E8000C82448344AAF188
:100100000107DA4501D100F02FF8AFF2090EBAE885
:100110000F0013F0010F18BFFB1A43F0010318473B
:100120001820000038200000103A24BF78C878C199
:10013000FAD8520724BF30C830C144BF04680C60ED
:10014000704700000023002400250026103A28BF35
:1001500078C1FBD8520728BF30C148BF0B60704739
:100160001FB51FBD10B510BD00F031F81146FFF7E7
:10017000F7FF01F095FD00F04FF803B4FFF7F2FF31
:1001800003BC00F053F800000948804709480047C5
:10019000FEE7FEE7FEE7FEE7FEE7FEE7FEE7FEE737
:1001A000FEE7FEE704480549054A064B7047000094
:1001B00099190008ED000008D8000020D80600209A
:1001C000D8020020D802002070477047704775465B
:1001D00000F028F8AE4605006946534620F00700B7
:1001E000854618B020B5FFF7DDFFBDE820404FF091
:1001F00000064FF000074FF000084FF0000B21F011
:100200000701AC46ACE8C009ACE8C009ACE8C009DD
:10021000ACE8C0098D4670470446AFF30080204625
:10022000FFF7ABFF00487047740000200149182019
:10023000ABBEFEE7260002007047000008B50121B2
:10024000084601F047F801214FF4017001F062F80F
:1002500000208DF803000F20ADF800006946024829
:1002600000F056FA08BD00000008014000B591B04A
:100270003D4800F06DF93D4806903D48079000204C
:1002800008900420099000200A9080200B904000E4
:100290000C9080000D9020200E9000020F90002006
:1002A000109006A9304800F0F9F901212E4800F01D
:1002B00043F90020019001208DF808008DF8090015
:1002C0004FF4602003900020049004208DF8140067
:1002D00001A926484C3800F077F84FF4404000F070
:1002E000EDFF05230122002120484C3800F094F84E
:1002F0000523022201211D484C3800F08DF805230A
:100300000322022119484C3800F086F80523042204
:10031000032116484C3800F07FF8012113484C386F
:1003200000F033F8012111484C3800F023F80F4851
:100330004C3800F0CDF800BF0C484C3800F03AF8CB
:100340000028F9D109484C3800F0D2F800BF07481E
:100350004C3800F025F80028F9D1012103484C3829
:1003600000F0BBF811B000BD080002404C24014071
:100370001E00002021B1826842F00102826003E089
:10038000826822F001028260704721B1826842F4E3
:100390008072826003E0826822F48072826070471B
:1003A000014600208A6802F004020AB1012000E040
:1003B00000207047014600208A6802F008020AB156
:1003C000012000E00020704730B5024600200023E5
:1003D00050680F4C20400D790C6844EA05242043F6
:1003E000506090680B4C2040D1E902542C434D7969
:1003F00044EA450420439060D06A20F470000C7CED
:10040000641EE4B2234340EA0350D06230BD0000D2
:10041000FFFEF0FFFDF7F1FFF0B504460D460020AA
:100420000021092D11DDE068A5F10A0606EB46075B
:10043000072606FA07F18843A5F10A0606EB4606E9
:1004400003FA06F10843E0600CE0206905EB45077C
:10045000072606FA07F1884305EB450603FA06F17D
:1004600008432061072A0FDA606B561E06EB8607E9
:100470001F2606FA07F18843561E06EB860605FA84
:1004800006F10843606322E00D2A0FDA206BD61FC5
:1004900006EB86071F2606FA07F18843D61F06EBF0
:1004A000860605FA06F10843206310E0E06AA2F12F
:1004B0000D0606EB86071F2606FA07F18843A2F110
:1004C0000D0606EB860605FA06F10843E062F0BD6C
:1004D000816841F008018160704721B1826842F46F
:1004E000A002826003E0826822F4A002826070476A
:1004F000816841F0040181607047000008B5012166
:10050000042000F007FF4FF48050ADF800001020E9
:100510008DF8030003208DF802006946044800F0BE
:10052000F7F84FF4805002491031086008BD000010
:100530000008014000BFFEE721B1026842F001025D
:10054000026004E002684FF6FE731A4002607047D2
:1005500001684FF6FE7211400160002101604160A8
:100560008160C1604B49884208D14A4908394968CD
:1005700041F00F01474A083A51608AE04549143179
:10058000884208D143490839496841F0F001414A9D
:10059000083A51607DE03F492831884208D13D4901
:1005A0000839496841F470613A4A083A516070E08C
:1005B00038493C31884208D136490839496841F404
:1005C0007041344A083A516063E032495031884200
:1005D00008D130490839496841F470212D4A083A58
:1005E000516056E02B496431884208D129490839C5
:1005F000496841F47001274A083A516049E02549A9
:100600007831884208D123490839496841F070613E
:10061000204A083A51603CE01F49884206D1011F38
:10062000096841F00F01021F116032E01A491431CC
:10063000884208D11849091F096841F0F001164A9B
:10064000121F116025E014492831884208D112494F
:10065000091F096841F470610F4A121F116018E008
:100660000D493C31884208D10B49091F096841F402
:100670007041094A121F11600BE00749503188424E
:1006800007D10549091F096841F47021024A121F68
:1006900011607047080002400804024010B50022B3
:1006A000026847F6F0739A430C6A8B6823430C691F
:1006B00023434C6923438C692343CC6923434C6A0D
:1006C00023438C6A23431A430260CB6843600B6860
:1006D00083604B68C36010BD70470000054909681E
:1006E00021F01001034A11601146096801431160AD
:1006F000704700000020024001460020034A1068B5
:1007000000F03800084310607047000000200240ED
:100710002DE9F04102460025002600200023002498
:10072000002791F803C00CF00F0591F803C00CF0FE
:10073000100CBCF1000F03D091F802C04CEA050583
:1007400091F800C0BCF1000F31D0146800202BE0FC
:100750004FF0010C0CFA00F3B1F800C00CEA0306EC
:100760009E4220D183004FF00F0C0CFA03F7BC43DC
:1007700005FA03FC4CEA040491F803C0BCF1280F0D
:1007800006D14FF0010C0CFA00FCC2F814C00AE0CC
:1007900091F803C0BCF1480F05D14FF0010C0CFAE1
:1007A00000FCC2F810C0401C0828D1D31460B1F876
:1007B00000C0BCF1FF0F34DD546800202EE000F1D2
:1007C000080C4FF0010808FA0CF3B1F800C00CEA6D
:1007D00003069E4221D183004FF00F0C0CFA03F761
:1007E000BC4305FA03FC4CEA040491F803C0BCF1D5
:1007F000280F05D100F1080C08FA0CF8C2F8148093
:1008000091F803C0BCF1480F07D100F1080C4FF07C
:10081000010808FA0CF8C2F81080401C0828CED352
:100820005460BDE8F08101617047000000BF0E48D0
:1008300001684FF0E02082690B4800688142F6D1E0
:100840000A48006800EB4003C3EBC010C2EBC000D5
:10085000064B1B68B0FBF3F001EB4103C3EBC11384
:1008600000EBC300704700000400002000000020DF
:1008700000BFFEE708B54020304908600520009021
:1008800004E09DF80000401EC0B200909DF80000FA
:100890000028F6D18020294908600520009004E056
:1008A0009DF80000401EC0B200909DF80000002896
:1008B000F6D140202149091F08600520009004E07E
:1008C0009DF80000401EC0B200909DF80000002876
:1008D000F6D10520009004E09DF80000401EC0B253
:1008E00000909DF800000028F6D10520009004E05B
:1008F0009DF80000401EC0B200909DF80000002846
:10090000F6D10520009004E09DF80000401EC0B222
:1009100000909DF800000028F6D1402007490860AB
:100920000520009004E09DF80000401EC0B2009039
:100930009DF800000028F6D108BD0000140C01400D
:1009400008B54020304908600520009004E09DF87B
:100950000000401EC0B200909DF800000028F6D1B3
:1009600080202949091F08600520009004E09DF8B7
:100970000000401EC0B200909DF800000028F6D193
:1009800040202149091F08600520009004E09DF8DF
:100990000000401EC0B200909DF800000028F6D173
:1009A0000520009004E09DF80000401EC0B20090B9
:1009B0009DF800000028F6D10520009004E09DF885
:1009C0000000401EC0B200909DF800000028F6D143
:1009D0000520009004E09DF80000401EC0B2009089
:1009E0009DF800000028F6D1402007490860052046
:1009F000009004E09DF80000401EC0B200909DF8F9
:100A000000000028F6D108BD140C014008B50821EB
:100A1000002080222C4B1A604CE04206100E40222F
:100A2000294B1B1D1A600522009204E09DF800204E
:100A3000521ED2B200929DF80020002AF6D1052263
:100A4000009204E09DF80020521ED2B200929DF860
:100A50000020002AF6D140221B4B1A60052200928A
:100A600004E09DF80020521ED2B200929DF80020B2
:100A7000002AF6D10522009204E09DF80020521EC3
:100A8000D2B200929DF80020002AF6D105220092F1
:100A900004E09DF80020521ED2B200929DF8002082
:100AA000002AF6D1084A083A126802F080020AB118
:100AB00040F001000A00A1F10103D9B2ADD14022FA
:100AC000014B1B1D1A6008BD100C014008B5082120
:100AD00050E040222C4B1A600522009204E09DF861
:100AE0000020521ED2B200929DF80020002AF6D1BA
:100AF00000F0800222B18022234B1B1F1A6002E00B
:100B00008022214B1A604206100E0522009204E05A
:100B10009DF80020521ED2B200929DF80020002ABB
:100B2000F6D14022184B1B1F1A600522009204E0E8
:100B30009DF80020521ED2B200929DF80020002A9B
:100B4000F6D10522009204E09DF80020521ED2B298
:100B500000929DF80020002AF6D10522009204E0C0
:100B60009DF80020521ED2B200929DF80020002A6B
:100B7000F6D100BF0A00A1F10103D9B2A9D14022E8
:100B8000014B1A6008BD0000140C014008B580201C
:100B900022490860402008600520009004E09DF88C
:100BA0000000401EC0B200909DF800000028F6D161
:100BB0001A480838006808B9012000E0002000F059
:100BC000800008B1012008BD80201449091D08607B
:100BD0000520009004E09DF80000401EC0B2009087
:100BE0009DF800000028F6D10C480838006800F095
:100BF000800008B10120E6E740200849091D08608F
:100C00000520009004E09DF80000401EC0B2009056
:100C10009DF800000028F6D100BFD4E7100C014079
:100C200008B54020244908600520009004E09DF8A4
:100C30000000401EC0B200909DF800000028F6D1D0
:100C400080201D4908600520009004E09DF8000008
:100C5000401EC0B200909DF800000028F6D105208B
:100C6000009004E09DF80000401EC0B200909DF886
:100C700000000028F6D140200F49091F0860052018
:100C8000009004E09DF80000401EC0B200909DF866
:100C900000000028F6D180200749091F08600520C0
:100CA000009004E09DF80000401EC0B200909DF846
:100CB00000000028F6D108BD140C014008B5402002
:100CC0002A4908600520009004E09DF80000401EBD
:100CD000C0B200909DF800000028F6D18020234982
:100CE000091F08600520009004E09DF80000401EE8
:100CF000C0B200909DF800000028F6D140201B49AA
:100D0000091F08600520009004E09DF80000401EC7
:100D1000C0B200909DF800000028F6D10520009098
:100D200004E09DF80000401EC0B200909DF8000055
:100D30000028F6D10520009004E09DF80000401E38
:100D4000C0B200909DF800000028F6D107480C388A
:100D5000006800F0800020B14020044908600120B4
:100D600008BD4020014908600020F9E7140C01404B
:100D700008B54020ADF8000003208DF802001020D7
:100D80008DF8030069460848FFF7C2FCC020ADF8A3
:100D9000000003208DF8020014208DF8030069463E
:100DA0000148FFF7B5FC08BD000C014070B50446D2
:100DB0000D460026FFF7EAFE012800D170BD20464F
:100DC000FFF784FEFFF77AFF012803D1FFF728FF22
:100DD0000120F3E72846FFF779FEFFF76FFFFFF7E3
:100DE0001FFFFFF7D3FE611CC8B2FFF76FFEFFF7CE
:100DF00065FF012803D1FFF713FF0120DEE7FFF7AE
:100E000005FE0646FFF79CFDFFF70AFF70B2D5E727
:100E10002DE9F04180460D4616461F46FFF7B6FE07
:100E2000012801D1BDE8F0814046FFF74FFEFFF7F2
:100E300045FF012803D1FFF7F3FE0120F2E7284622
:100E4000FFF744FEFFF73AFF00240BE0305DFFF7A9
:100E50003DFEFFF733FF012803D1FFF7E1FE01203C
:100E6000E0E7641CBC42F1DBFFF7DAFE0020D9E7C3
:100E700070B506460C461546FFF788FE012800D1DE
:100E800070BD3046FFF722FEFFF718FF012803D19F
:100E9000FFF7C6FE0120F3E72046FFF717FEFFF736
:100EA0000DFF2846FFF712FEFFF708FFFFF7B8FE19
:100EB0000020E5E72DE9F04106460F4615461C46A1
:100EC000FFF764FE012801D1BDE8F0813046FFF74D
:100ED000FDFDFFF7F3FE012803D1FFF7A1FE01207E
:100EE000F2E73846FFF7F2FDFFF7E8FEFFF798FE5E
:100EF000FFF74CFE711CC8B2FFF7E8FDFFF7DEFEFE
:100F0000012803D1FFF78CFE0120DDE70CE0FFF79D
:100F10007DFD2870012C02D1FFF712FD01E0FFF7E3
:100F2000A9FC6D1C601EC4B2002CF0D1FFF778FE46
:100F30000020C9E700BFFEE7704700001FB510A101
:100F400003C9CDE90201052202A9302000F0CEF844
:100F500005226946102000F067F8002406E01DF81D
:100F60000400A52800D003E0601CC4B2052CF6DB09
:100F700000BF052C02D0012004B010BD0020FBE70B
:100F8000A5A5A5A5A500000008B50121042000F035
:100F9000C1F94FF40060ADF8000010208DF8030097
:100FA00003208DF8020069461D48FFF7B1FB0121BF
:100FB000082000F0AFF94FF48050ADF80000102089
:100FC0008DF8030003208DF8020069461548FFF7ED
:100FD0009FFB4FF400601249103108604000114936
:100FE000103108600011ADF8000048208DF80300B2
:100FF00003208DF8020069460948FFF789FB4FF48A
:1010000080710748FFF70FFC00F01AFC4FF40060F6
:10101000034914310860400002491031086008BDDE
:1010200000080140000C01402DE9F04107460D4643
:1010300016464FF480500C490860384600F076FCA4
:101040008046002405E0FF2000F070FC2855601C5D
:10105000C4B2B442F7DB4FF480500349091F086063
:101060004046BDE8F0810000140C014070B5044614
:101070004FF4805007490860204600F057FCFF20DD
:1010800000F054FC05464FF480500249091F0860E7
:10109000284670BD140C014070B505464FF4006041
:1010A0001149086020222946A02000F01FF84FF4C3
:1010B00000600D49091F08600720FFF7D7FF0446AD
:1010C0002146272000F034F804F0100028B1FF2159
:1010D000E12000F02DF8102070BD04F0200008B1D0
:1010E0002020F9E7FF20F7E7140801402DE9F0413F
:1010F00007460C4615464FF480500C4908603846A8
:1011000000F014FC8046002605E014F8010B00F006
:101110000DFC701CC6B2AE42F7DB4FF480500349A1
:10112000091F08604046BDE8F0810000140C014032
:1011300070B505460C464FF48050084908602846B3
:1011400000F0F4FB0646204600F0F0FB4FF4805020
:101150000249091F0860304670BD0000140C0140B0
:1011600010B5FFF711FF00BFFFF7E8FE0028FBD125
:1011700000F01CFC10BD000010B504201BE0194954
:10118000014411F8031C184A11541146C97F125C1E
:101190001144154AD1771349014411F8042C124B1C
:1011A000411C5A541946C97F1A46125C11441A460A
:1011B000D177811CC8B21A28E1DB00200A49C87720
:1011C00000BF08E00849C97F074A125C1144064A7B
:1011D000D177411CC8B21F28F4DB0348FFF75CFF3E
:1011E00010BD0000280000203800002008B54FF492
:1011F000E06000F057F825208DF8000000208DF801
:1012000001008DF8020001208DF80300684600F00F
:1012100011F81D208DF8000002208DF80100032038
:101220008DF8020001208DF80300684600F002F8F6
:1012300008BD000070B5002100230F22C47804B35C
:10124000154C246804F4E064C4F5E064210AC1F19B
:101250000403CA40447804FA03F18478144021431B
:1012600009010E4C0678A155047804F01F050124ED
:10127000AC4005786D11AD0005F1E025C5F80041E1
:1012800009E0047804F01F050124AC40044D067801
:10129000761145F8264070BD0CED00E000E400E05A
:1012A00080E100E002490143024A116070470000FA
:1012B0000000FA050CED00E0704700000146002038
:1012C000034A506820F440400843506070470000D3
:1012D0000010024029B1064A52690243044B5A6188
:1012E00004E0034A52698243014B5A61704700008F
:1012F0000010024029B1064AD2690243044BDA6168
:1013000004E0034AD2698243014BDA61704700006E
:101310000010024029B1064A92690243044B9A61C7
:1013200004E0034A92698243014B9A6170470000CE
:101330000010024010B500F03BF8012000F0FAF870
:1013400000BF212000F0C4F80028FAD01020FFF7D9
:10135000C5F90220FFF7D0F9002000F0DFF84FF4C4
:10136000806000F0EDF8002000F0F6F84FF4201156
:10137000002000F003F9012000F0FAF800BF392046
:1013800000F0A6F80028FAD0022000F005F900BF0E
:1013900000F0BCF80828FBD1012145F21D20FFF721
:1013A000B9FF01210148FFF7A5FF10BD020024008D
:1013B0000F48006840F001000D4908600846406889
:1013C0000C4908400A494860084600680A49084034
:1013D000074908600846006820F480200860084635
:1013E000406820F4FE0048604FF41F00886070479A
:1013F000001002400000FFF8FFFFF6FE30B50021AC
:101400000022002400232D4D6D6805F00C0121B150
:10141000042905D0082923D105E0294D056022E0E3
:10142000274D05601FE0254D6D6805F47012234DB2
:101430006D6805F48034022505EB92421CB9214DFC
:10144000554305600BE01D4D6D6805F400351DB179
:101450001C4D5543056002E0194D5543056002E0FF
:10146000174D056000BF00BF144D6D6805F0F00119
:101470000909154D6B5C0568DD4045600F4D6D68D1
:1014800005F4E061090A104D6B5C4568DD4085603C
:101490000A4D6D6805F46051C90A0B4D6B5C4568D7
:1014A000DD40C560054D6D6805F44041890B074D71
:1014B0006B5CC568B5FBF3F5056130BD00100240FB
:1014C00000127A0000093D000900002019000020E8
:1014D00010B501460022002300204A11012A02D142
:1014E000094C236806E0022A02D1074C236A01E076
:1014F000054C636A01F01F02012494401C400CB1AA
:10150000012000E0002010BD0010024002484068A9
:1015100000F00C007047000000100240014600205F
:10152000034A506820F0F000084350607047000004
:10153000001002400149086070470000000042426C
:1015400001460020034A506820F4E06008435060E0
:10155000704700000010024001460020034A506816
:1015600020F4605040EAC100506070470010024013
:101570000149086670470000000042420246002010
:10158000044B586820F47C1042EA01031843014BD5
:10159000586070470010024001460020034A50681E
:1015A00020F0030008435060704700000010024024
:1015B0002DE9F0418C49488800F064FC05464FF065
:1015C0007A5100F073FC044600F03CFC00F57A70A0
:1015D0008649C9880844864988808648008800F082
:1015E00051FC07464FF07D5100F060FC05468049F4
:1015F000888800F047FC07464FF07A5100F056FC0F
:101600000646294600F0BCFB044600F01BFC80B2F5
:1016100077498880774908807349888800F032FCD0
:1016200005464FF07A5100F041FC044600F00AFCF8
:1016300000F57A706D49898808446D4948806E4884
:10164000008800F01FFC07464FF07D5100F02EFC93
:1016500005466749488800F015FC07464FF07A5167
:1016600000F024FC0646294600F08AFB044600F000
:10167000E9FB80B25E4948805F4908805A49088882
:1016800000F000FC05464FF07A5100F00FFC0446D4
:1016900000F0D8FB00F57A70544909890844544990
:1016A000C8805648008800F0EDFB07464FF07D519A
:1016B00000F0FCFB05464E49C88800F0E3FB0746F6
:1016C0004FF07A5100F0F2FB0646294600F058FB35
:1016D000044600F0B7FB80B24549C88047490880FE
:1016E0004149C88800F0CEFB05464FF07A5100F022
:1016F000DDFB044600F0A6FB00F57A703B49498803
:1017000008443B4908803E48008800F0BBFB074680
:101710004FF07D5100F0CAFB05463549088800F0BE
:10172000B1FB07464FF07A5100F0C0FB0646294650
:1017300000F026FB044600F085FB80B22C490880AF
:101740002F4908802A488088B0F5FA6F04DD4FF4ED
:10175000FA602749888008E025488088B0F57A7FBC
:1017600003DA4FF47A702249888021484088B0F526
:10177000FA6F04DD4FF4FA601D49488008E01C4808
:101780004088B0F57A7F03DA4FF47A7018494880C0
:1017900017480088B0F5FA6F04DD4FF4FA60144979
:1017A000088008E012480088B0F57A7F03DA4FF429
:1017B0007A700F4908800E48C088B0F5FA6F04DDD2
:1017C0004FF4FA600A49C88008E00948C088B0F5BB
:1017D0007A7F03DA4FF47A700549C88000F052F935
:1017E000FFF7CAFCBDE8F0811E0000206800002061
:1017F00028000020580000205C0000205E0000202F
:101800005A00002010B5002000F08CFA00B2054903
:101810004880042000F086FA00B20249888000F077
:101820000FFA10BD6800002021B1028842F040028A
:10183000028004E002884FF6BF731A4002807047AE
:1018400000B587B001218803FFF754FD012109206D
:10185000FFF760FD4FF480511C48FEF7E4FF4FF4A2
:101860006040ADF8040003208DF8060018208DF8C4
:10187000070001A91548FEF74BFF00211448FFF7A8
:10188000D3FF0020ADF808004FF48270ADF80A00D5
:101890000020ADF80C00ADF80E00ADF810004FF4CC
:1018A0000070ADF812001020ADF814000020ADF863
:1018B00016000720ADF8180002A9054800F018F836
:1018C00001210348FFF7B0FF07B000BD000C014045
:1018D000003800400246002013890B400BB1012064
:1018E00000E0002070470146888970478181704779
:1018F00010B50022028802F441520B884C88234321
:101900008C882343CC8823430C8923434C8923436D
:101910008C892343CC8923431A430280838B4FF263
:10192000FF74234083830B8A038210BD10B50446E5
:1019300000BF02210A48FFF7CDFF0028F9D0214659
:101940000748FFF7D3FF00BF01210548FFF7C2FF9B
:101950000028F9D00248FFF7C6FFC0B210BD000052
:10196000003800407047000010B509480068401C6E
:1019700007490860074801780078401C054A107044
:101980000A2904DB002011460870FFF711FE10BD84
:1019900004000020080000200348006840F0010017
:1019A00001490860704700000010024010B54FF474
:1019B000006015490860052214493020FFF796FBA6
:1019C000052213492A20FFF791FB01212120FFF76F
:1019D000AFFB01212220FFF7ABFB1A212420FFF7E8
:1019E000A7FB28212520FFF7A3FB0F212620FFF7C7
:1019F0009FFB0E212020FFF79BFB4FF40060024964
:101A0000091F086010BD0000140801402E210008C5
:101A10003321000800BFFEE710B5FFF7A9F9FFF773
:101A20009FFB00BF00F089F90028FBD1FEF706FC00
:101A3000FEF71CFCFFF7E6FE10BD000000B585B008
:101A40006846FFF7DBFC04490098B0FBF1F003495E
:101A5000086005B000BD000040420F0000000020FB
:101A600030B50446FEF7E2FE054600BFFEF7DEFE97
:101A7000401B04EB4401C1EBC411B0EBC10FF5D323
:101A800030BD000010B56648007820B1012827D08D
:101A9000022824D13DE06348006863490968401A80
:101AA0001E281CD96148006848F2C00108408842DD
:101AB00010D15F48006840F603010840884209D110
:101AC0005C48806800F44040B0F5404F02D10120EE
:101AD000534908704FF4805054490C3108609CE021
:101AE0005248006848F2C001084088420DD1504871
:101AF000006840F603010840884206D14D488068DE
:101B000000F44040B0F5404F02D002204449087034
:101B100083E04648006800F4004030B94648008938
:101B200080F48760444908816AE04148006800F415
:101B3000006030B94048408980F487603E49488160
:101B40005EE03C48806800F4804030B93A488089C3
:101B500080F487603849888152E03648806800F414
:101B6000004030B93448C08980F487603249C88168
:101B700046E02E48006800F0400060B92F484088D9
:101B8000401F00B22D4948800846408881B200209D
:101B900000F0E9F834E02548006800F0800060B902
:101BA00026484088401D00B22449488008464088A5
:101BB00081B2002000F0D7F822E01D48006800F054
:101BC000010060B91D488088401F00B21B49888011
:101BD0000846808881B2042000F0C5F810E014485F
:101BE000006800F0020058B914488088401D00B217
:101BF000124988800846808881B2042000F0B3F83A
:101C00000020074908704FF48050084908310860E7
:101C1000044800680449086000BF00BF10BD000010
:101C2000600000200400002064000020080801403B
:101C3000080C01400010014028000020680000202E
:101C400008B54FF000701249486001211C20FFF7D1
:101C500061FB48F2D000ADF8000048208DF8030089
:101C600003208DF8020069460A48FEF751FD40F650
:101C70000300ADF8000069460748FEF749FD4FF440
:101C80004040ADF8000069460448FEF741FD08BD3C
:101C90000000014000080140000C0140001001401C
:101CA000FFF748FBFFF7CAFEFEF728FC194800BF04
:101CB000011EA0F10100FBDC4FF48051164A1160B7
:101CC0004BF68031B1F1807F00D31DE021F07F40E1
:101CD000401E4FF0E022506150170F22002807DA13
:101CE00013071D0E0D4B00F00F04241F1D5503E0BC
:101CF00013071C0E0A4B1C5400BF00204FF0E022BB
:101D000090610720106100BFFFF786FEFFF76EFAB3
:101D100000BFFEE780841E001408014018ED00E0BB
:101D200000E400E038B5044602236A462146A020BC
:101D3000FFF7C0F8BDF8000038BD10B50024AA2296
:101D40005521A020FFF794F84FF47A70FFF788FE32
:101D50005521A020FFF72AF8C4B2AA2C01D00120F7
:101D600010BD0020FCE713B504460A20FFF778FEFB
:101D7000022301AA2146A020FFF74AF81CBD00005B
:101D800090EA010F48BF81F0004100F16281421AE0
:101D90003CBF801A89184FEAD0524FF07F4C1CEAA2
:101DA000410FA2EBD15318BF9CEA026F00F03B80B9
:101DB0004FF0004C4CEA00204CEA012121FA03FCD0
:101DC00010EB0C0C1ED202F1FF325FEA1C2040EB3C
:101DD000C25038BF70471CF07F0F4FEA400C18BF4D
:101DE000BCF17F4F38BF7047C3F12003994008BF53
:101DF00020F00100BCF17F4F38BF7047A0F1C04018
:101E000000F01BB94FEA3C00000A40EBC25028BF6B
:101E10001CF0FF0F4FEA400CE6D018BFBCF17F4F1B
:101E200038BF7047EAE79CEA026F05D010EA5C0F02
:101E300008BF00F00040704710B500F0B8F800BFD0
:101E400064FBBE3EC10DD1F19E0206DB4FEA0023CA
:101E500043F0004323FA02F07047004207D54FEAEF
:101E60004001B1F1FE4F02D24FF00000704710B5B3
:101E700000F09DF849922480002070476FEA20000E
:101E800070470000B0FA80F310FA03F2C3F19D032B
:101E90000AD0D90501EB1220530638BF704700F174
:101EA000010008BF20F00100704700004FF47F0CD4
:101EB0001CEAD0121EBF1CEAD11392EA0C0F93EA5F
:101EC0000C0F00F0478090EA010F48BF42F4807287
:101ED0004FF0004C4CEA00204CEA012102EB0302D7
:101EE000A0FB0113A2F50002002918BF43F0010373
:101EF0005B0028BF4FEA330342EB22425FEA132C18
:101F00004CEBC2502EBFBCEB436FB2F57C0F704759
:101F10004FEA036CBCF1004F08BF20F00100B2F59E
:101F20007C0F38BF70470BD582F0FF0212F5803F5F
:101F3000C8BF704700F1C040D8BF00F000407047F4
:101F400000F5000C5FEA4C0C48BF7047B0F1C04090
:101F500000F073B890EA010F0CEAD11348BF42F4C5
:101F60008072624538BF634504D280EA010000F008
:101F70000040704710B500F01AF800BF8900013E1C
:101F800000F007B800F009B85FEA410C5FEA1C6C8A
:101F900008D080EA010000F050B85FEA400C5FEA28
:101FA0001C6CF6D14FF00040A0F5800070470EF198
:101FB000020E2EF0030E5EF8044B244204D44FEAC6
:101FC0004102B2F17F4F11D84FEA4003B3F17F4F86
:101FD0000CD80ED14FEAD07CB2F17F4F0CEB4C0CF9
:101FE0000CF1020C08BF4CEBD17C04E04FF0080C64
:101FF00001E04FEAD17C0CEB4C0324FA03F404F02B
:102000000704B4F1040C06D20EEB840CBDE81040BA
:102010004CF0010C6047DFE80CF0070802024FF0BB
:102020000040A0F5800010BD0846420018BFD2F164
:10203000807288BF00F0004010BDFF2141EAD050FF
:10204000C005704790EA010F48BF81F000413FF59D
:102050009EAE421A04D882F00042A0EB0200114466
:102060004FEAD0524FF07F4C1CEA410FA2EBD15304
:1020700018BF9CEA026F4AD04FF0004C4CEA002097
:102080004CEA012121FA03FCB0EB0C0C0FD412F046
:10209000FE0F36D05FEA4C001DD5001240EBC25057
:1020A00038BF70471CF03F0F18BF70470BE0A2F11C
:1020B00001025FEA1C2040EBC25038BF70471CF0A1
:1020C0007F0F18BF7047C3F12003994014BF401E13
:1020D00020F00100704780084FEA122308BF7047C4
:1020E000B0FA80FCA2EB0C02CCF1280C60FA0CF0E8
:1020F00093EA122F04BF00EBC25070474FEAC3703F
:102100007047130A5FEADC1008BF7047F6E79CEAE5
:10211000026F04D010EA5C0F08BF0020704710B5B2
:10212000FFF745FF40DFF63E81F000407047E1E2F7
:10213000E3E4E5E1E2E3E4E55821000800000020E3
:102140006800000028010008C02100086800002085
:1021500070060000440100080000000000000000BC
:102160000000000000010203040102030406070846
:102170000902040608000000000000000000000042
:10218000E803E803E803E803E803E803E803E803F7
:10219000AAAF031B000000000000000000000000C8
:1021A000000000000000000000000000000000002F
:1021B000000000000000000000000000000000001F
:04000005080000ED02
:00000001FF
